{
  "_format": "hh-sol-artifact-1",
  "contractName": "Affirmations",
  "sourceName": "contracts/Affirmations.sol",
  "abi": [
    {
      "anonymous": false,
      "inputs": [
        {
          "indexed": true,
          "internalType": "bytes32",
          "name": "affirmationHash",
          "type": "bytes32"
        },
        {
          "indexed": true,
          "internalType": "address",
          "name": "author",
          "type": "address"
        },
        {
          "indexed": false,
          "internalType": "uint256",
          "name": "createdAt",
          "type": "uint256"
        },
        {
          "indexed": false,
          "internalType": "uint256",
          "name": "effectiveAt",
          "type": "uint256"
        }
      ],
      "name": "AffirmationCreated",
      "type": "event"
    },
    {
      "inputs": [
        {
          "internalType": "uint256",
          "name": "",
          "type": "uint256"
        }
      ],
      "name": "affirmations",
      "outputs": [
        {
          "internalType": "bytes32",
          "name": "affirmationHash",
          "type": "bytes32"
        },
        {
          "internalType": "address",
          "name": "author",
          "type": "address"
        },
        {
          "internalType": "uint256",
          "name": "createdAt",
          "type": "uint256"
        },
        {
          "internalType": "uint256",
          "name": "effectiveAt",
          "type": "uint256"
        }
      ],
      "stateMutability": "view",
      "type": "function"
    },
    {
      "inputs": [
        {
          "internalType": "bytes32",
          "name": "affirmationHash",
          "type": "bytes32"
        },
        {
          "internalType": "uint256",
          "name": "effectiveAt",
          "type": "uint256"
        }
      ],
      "name": "createAffirmation",
      "outputs": [],
      "stateMutability": "nonpayable",
      "type": "function"
    },
    {
      "inputs": [],
      "name": "getAffirmations",
      "outputs": [
        {
          "components": [
            {
              "internalType": "bytes32",
              "name": "affirmationHash",
              "type": "bytes32"
            },
            {
              "internalType": "address",
              "name": "author",
              "type": "address"
            },
            {
              "internalType": "uint256",
              "name": "createdAt",
              "type": "uint256"
            },
            {
              "internalType": "uint256",
              "name": "effectiveAt",
              "type": "uint256"
            }
          ],
          "internalType": "struct Affirmations.Affirmation[]",
          "name": "",
          "type": "tuple[]"
        }
      ],
      "stateMutability": "view",
      "type": "function"
    }
  ],
  "bytecode": "0x608060405234801561001057600080fd5b506103dd806100206000396000f3fe608060405234801561001057600080fd5b50600436106100415760003560e01c80631c3c86a014610046578063290d38b114610086578063851292801461009b575b600080fd5b6100596100543660046102ff565b6100b0565b604080519485526001600160a01b0390931660208501529183015260608201526080015b60405180910390f35b610099610094366004610318565b6100f3565b005b6100a3610275565b60405161007d919061033a565b600081815481106100c057600080fd5b600091825260209091206004909102018054600182015460028301546003909301549193506001600160a01b0316919084565b4281116101465760405162461bcd60e51b815260206004820152601a60248201527f6566666563746976654174206d75737420626520667574757265000000000000604482015260640160405180910390fd5b6040805160808101825283815233602080830182815242848601908152606085018781526000805460018101825590805286517f290decd9548b62a8d60345a988386fc84ba6bc95484008f6362f93160ef3e56360049092029182015592517f290decd9548b62a8d60345a988386fc84ba6bc95484008f6362f93160ef3e564840180546001600160a01b0319166001600160a01b0390921691909117905590517f290decd9548b62a8d60345a988386fc84ba6bc95484008f6362f93160ef3e565830181905590517f290decd9548b62a8d60345a988386fc84ba6bc95484008f6362f93160ef3e5669092018290558551908152918201529192909185917f17d379d17432d864d6965381cbfe28002f98b35376ac0c12a3b36b30ebda0ebd910160405180910390a3505050565b60606000805480602002602001604051908101604052809291908181526020016000905b828210156102f65760008481526020908190206040805160808101825260048602909201805483526001808201546001600160a01b0316848601526002820154928401929092526003015460608301529083529092019101610299565b50505050905090565b60006020828403121561031157600080fd5b5035919050565b6000806040838503121561032b57600080fd5b50508035926020909101359150565b602080825282518282018190526000919060409081850190868401855b8281101561039a57815180518552868101516001600160a01b03168786015285810151868601526060908101519085015260809093019290850190600101610357565b509197965050505050505056fea26469706673582212208b094fa00cb0a197eb8a584639b0e3e6d3bae4723eb79602411e63736f5af30e64736f6c63430008140033",
  "linkReferences": {},
  "deployedLinkReferences": {}
}